{
  "contractName": "SimpleStorage",
  "abi": [
    {
      "constant": false,
      "inputs": [
        {
          "name": "x",
          "type": "string"
        }
      ],
      "name": "addData",
      "outputs": [],
      "payable": false,
      "stateMutability": "nonpayable",
      "type": "function"
    },
    {
      "constant": true,
      "inputs": [
        {
          "name": "i",
          "type": "uint256"
        }
      ],
      "name": "getData",
      "outputs": [
        {
          "name": "",
          "type": "uint256"
        },
        {
          "name": "",
          "type": "string"
        }
      ],
      "payable": false,
      "stateMutability": "view",
      "type": "function"
    }
  ],
  "bytecode": "0x6060604052341561000f57600080fd5b6103e48061001e6000396000f30060606040526004361061004c576000357c0100000000000000000000000000000000000000000000000000000000900463ffffffff1680630178fe3f14610051578063d4a2498d146100f4575b600080fd5b341561005c57600080fd5b6100726004808035906020019091905050610151565b6040518083815260200180602001828103825283818151815260200191508051906020019080838360005b838110156100b857808201518184015260208101905061009d565b50505050905090810190601f1680156100e55780820380516001836020036101000a031916815260200191505b50935050505060405180910390f35b34156100ff57600080fd5b61014f600480803590602001908201803590602001908080601f01602080910402602001604051908101604052809392919081815260200183838082843782019150505050505091905050610220565b005b600061015b61025f565b60008054905060008481548110151561017057fe5b9060005260206000209001808054600181600116156101000203166002900480601f0160208091040260200160405190810160405280929190818152602001828054600181600116156101000203166002900480156102105780601f106101e557610100808354040283529160200191610210565b820191906000526020600020905b8154815290600101906020018083116101f357829003601f168201915b5050505050905091509150915091565b600080548060010182816102349190610273565b91600052602060002090016000839091909150908051906020019061025a92919061029f565b505050565b602060405190810160405280600081525090565b81548183558181151161029a57818360005260206000209182019101610299919061031f565b5b505050565b828054600181600116156101000203166002900490600052602060002090601f016020900481019282601f106102e057805160ff191683800117855561030e565b8280016001018555821561030e579182015b8281111561030d5782518255916020019190600101906102f2565b5b50905061031b919061034b565b5090565b61034891905b80821115610344576000818161033b9190610370565b50600101610325565b5090565b90565b61036d91905b80821115610369576000816000905550600101610351565b5090565b90565b50805460018160011615610100020316600290046000825580601f1061039657506103b5565b601f0160209004906000526020600020908101906103b4919061034b565b5b505600a165627a7a72305820305ae96f09164ade94db1752e731c6b91ee24b0b5408ac8d201bf09a2617e6500029",
  "source": "pragma solidity ^0.4.18;\n\ncontract SimpleStorage {\n  string [] storedData;\n\n  function addData(string x) public {\n    storedData.push(x);\n  }\n\n  function getData(uint i) public view returns (uint,string) {\n    return (storedData.length,storedData[i]);\n  }\n}\n",
  "sourcePath": "/Users/fei/Desktop/区块链study/ipfs-image/contracts/SimpleStorage.sol",
  "compiler": {
    "name": "solc",
    "version": "0.4.19+commit.c4cbbb05.Emscripten.clang"
  },
  "schemaVersion": "2.0.0",
  "updatedAt": "2018-03-09T03:23:58.111Z"
}